:020000040800F2
:1080000058B1002079820008D9A70008AD81000886
:1080100081A70008F18C0008FDD1000800000000D5
:10802000000000000000000000000000C181000806
:10803000599C00080000000015820008A1AF00084C
:1080400093820008938200089382000893820008BC
:108050009382000893820008639C0008079D000833
:10806000179D0008279D0008659D0008C59700081A
:1080700093820008D5970008E59700084D980008FE
:1080800093820008D998000893820008000000003D
:108090000000000000000000000000007B9D0008C0
:1080A000938200089382000893820008938200085C
:1080B00093820008938200089382000879A2000846
:1080C00069A2000893820008938200089382000846
:1080D0009382000891B40008C5B4000800000000B5
:1080E0007B9C000893820008938200080000000037
:1080F0000000000000000000000000009382000863
:108100000000000093820008938200089382000818
:10811000000000000000000000000000000000005F
:1081200093820008938200089382000893820008DB
:108130009382000800000000000000000000000022
:108140000000000000000000000000007DA8000802
:1081500093820008938200089382000893820008AB
:1081600099A2000889A20008000000000000000099
:1081700000000000000000000000000000000000FF
:1081800000000000938200080000000000000000D2
:108190009382000893820008DFF80CD000F054FCB2
:1081A000004800472D4F010858B100201EF0040F71
:1081B0000CBFEFF30880EFF309800EF059B900000F
:1081C0002A4B19680868B0E8F04F80F30988BFF3BC
:1081D0006F8F4FF0000080F311887047000000009F
:1081E00006480068006880F3088862B661B6BFF38D
:1081F0004F8FBFF36F8F00DF00BF00BF08ED00E0BF
:10820000DFF80C00016841F470010160704700BFA5
:1082100088ED00E0EFF30980BFF36F8F134B1A680E
:108220001EF0100F08BF20ED108A20E9F04F1060FB
:1082300008B44FF0500080F31188BFF34F8FBFF3A5
:108240006F8F12F04BFE4FF0000080F3118808BCD6
:1082500019680868B0E8F04F1EF0100F08BFB0ECC6
:10826000108A80F30988BFF36F8F70479C0300204A
:10827000EFF3058070470000064880470648004736
:10828000FEE7FEE7FEE7FEE7FEE7FEE7FEE7FEE7C6
:10829000FEE7FEE7C1AF0008998100082DE9F04133
:1082A0000024061B254671F1000605DA012400278B
:1082B000D0EB070067EB0101161E73F1000605DA2B
:1082C0000027D2EB0702012567EB030300F094FAC5
:1082D00086460E4617469C46AC4204D00025D0EB9D
:1082E000050E65EB010624B10020D2EB000760EB20
:1082F000030C704631463A466346BDE8F08110B53E
:10830000431A934209D28318881803E010F8011D1C
:1083100003F8011D521EF9D210BD40EA01039B076C
:1083200003D009E008C9121F08C0042AFAD203E0EA
:1083300011F8013B00F8013B521EF9D210BDD2B238
:1083400001E000F8012B491EFBD270470022F6E73E
:1083500010B513460A4604461946FFF7F0FF2046BB
:1083600010BD2DE9FE4F804681EA0300C00F0C4688
:10837000009021F0004123F00045B8EB0200A94134
:1083800005D24046214690461C460B46024623F045
:108390000040104347D0270DC7F30A00C3F30A512A
:1083A0000290401A019040286BDAC3F3130040F4A6
:1083B000801B0098924620B10023D2EB030A63EBA6
:1083C0000B0B01985946C0F14002504600F045FAA7
:1083D00006460D4650465946019A00F05DFA10EBEC
:1083E00008006141002487EA115284EAE7731A43C6
:1083F00040D0009A62B3019A012A4FEA075215DC75
:10840000001B61EB02014FF0004202EA0752CDE986
:108410000042001C41F5801132462B4600F094FAD0
:1084200003B0BDE8F08F40462146F9E7001B61EB41
:108430000201001C41F5801300185B412018A2F5D1
:10844000001747EB030140EAD570B6196D4111E002
:108450006D084FEA360645EAC0754FEA0752001B21
:1084600061EB0201001C41F5801149084FEA300020
:108470000019514132462B4603B0BDE8F04F00F0E1
:1084800054BA0098012240000023D0EB020263EBB3
:10849000E073009821464FEAE074B8EB000061EB0E
:1084A0000401E9E783F000435BE781F0004158E70E
:1084B0002DE9FE4F81EA030404F0004421F000415D
:1084C00000944FF0000B23F0004350EA01045ED00B
:1084D00052EA03045BD0C3F30A54C1F30A552C4497
:1084E000A4F2F3340194A0FB0254C1F3130141F44C
:1084F0008011C3F3130343F4801301FB024400FB18
:10850000034E840A970A44EA815447EA8357A4FB3E
:10851000076802958D0A05FB07854FEA932C04FB3B
:108520000C542705029D4FEA065847EA1637B5EB6B
:1085300008056EEB070C870E920E47EA811742EA98
:108540008312A7FB0201B6EB0B0164EB00042B0DB9
:1085500043EA0C335E1844EB1C50DA465146E7FB05
:108560000201C5F313044FEA0B3343EA14534FEAF5
:108570000432019C43EA0603A4F10C040294009C1B
:10858000CDE900B400F0E0F903B0BDE8F08F0020C1
:108590000146F9E72DE9F04D81EA030404F0004BB0
:1085A00021F0004514464FF0000A23F0004150EA44
:1085B000050220D054EA01021DD0C5F30A57024635
:1085C000C5F31303C1F31300C1F30A5640F4801539
:1085D00043F48013A7EB0608101BD64608F2FD38BB
:1085E00073EB050002D308F1010801E092185B412A
:1085F000B8F1000F03DA00200146BDE8F08D00203D
:108600004FF48011064684460EE0171B73EB0507F6
:1086100005D3121B63EB050306434CEA010C490822
:108620004FEA300092185B4150EA0107EDD152EA5F
:10863000030012D082EA040083EA0501084305D052
:10864000101BAB4106D20122002306E000224FF0AE
:10865000004302E06FF0010253101AEB06004CEBEE
:10866000085110EB0A0041EB0B01BDE8F04D00F0A2
:108670005CB9F0B4CA17CB0F50405140C61841F155
:1086800000054FEAC372314628004FF0960303D02D
:10869000B623F0BC00F01BB930460021F9E70EB557
:1086A000C10F80EAE0700844CA07002140F233435A
:1086B0008DE80E000A460B4600F046F903B000BDF7
:1086C0000EB540F2334102910021CDE900110A4676
:1086D0000B4600F039F903B000BDC1F30A5210B5E2
:1086E000C1F3130140F2FF3341F480119A4201DAE1
:1086F000002010BD40F233439A42A2F2334203DC21
:10870000524200F0B9F810BD904010BD00F0004298
:1087100030F000400AD0C10D01F56071C0F31600C1
:1087200042EA0151C2084007114370470020014648
:108730007047000030B5041E71F1000404DB4FF0F7
:108740000044404264EB0101141E73F1000405DB98
:108750001C464FF00043524263EB04038B4208BFB8
:10876000824230BD30B5041E71F1000404DB4FF0CD
:108770000044404264EB0101141E73F1000405DB68
:108780001C464FF00043524263EB0403994208BF7A
:10879000904230BD01F0004330B421F0004150EA76
:1087A000010206D00A0DA2F56072C1F31301002A7E
:1087B00002DC30BC00207047440F44EAC104C10011
:1087C000E01830BC00EBC25000F078B830B50B4672
:1087D000014600202022012409E021FA02F59D42F1
:1087E00005D303FA02F5491B04FA02F52844151EC5
:1087F000A2F10102F1DC30BD2DE9F05F0546002059
:1088000092469B4688460646814640241BE0284601
:1088100041464746224600F02FF853465A46C01AB2
:10882000914110D311461846224600F016F82D1A31
:1088300067EB01084F4622460120002100F00DF8A9
:1088400017EB00094E41201EA4F10104DFDC48466D
:1088500031462A464346BDE8F09F202A04DB203AF1
:1088600000FA02F1002070479140C2F1200320FA83
:1088700003F3194390407047202A04DB203A21FA81
:1088800002F00021704721FA02F3D040C2F1200229
:108890009140084319467047202A06DBCB17203A3F
:1088A00041FA02F043EAE07306E041FA02F3D040F5
:1088B000C2F1200291400843194670470029A8BF21
:1088C0007047401C490008BF20F00100704710B4F9
:1088D000B0FA80FC00FA0CF050EA010404BF10BCAE
:1088E000704749B1CCF1200421FA04F411FA0CF1DB
:1088F00018BF012121430843A3EB0C01CB1D4FEA14
:1089000000614FEA102042BF002010BC704700EB0E
:10891000C35010440029A4BF10BC7047401C49003C
:1089200008BF20F0010010BC704710B5141E73F191
:10893000000408DA401C41F1000192185B411A431F
:1089400001D120F0010010BD2DE9F04D92469B466B
:1089500011B1B1FA81F202E0B0FA80F22032904611
:10896000FFF77BFF04460F4640EA0A0041EA0B018D
:1089700053465A46084313D0114653EA010019D012
:10898000C8F140025046FFF777FF05460E465046B5
:1089900059464246FFF761FF084305D0012004E035
:1089A00020463946BDE8F08D0020054346EAE076D2
:1089B0002C4337430A986305E40AA0EB0800002221
:1089C000FD0A44EA47540A3002D500200146E9E78F
:1089D000010510196941DDE9084500196941BDE843
:1089E000F04DA2E770B521F0004303430CD0C1F372
:1089F0000A550024D5EB040564EB0403D617AD1A21
:108A0000B34102DB0020014670BD201841EB02514A
:108A100070BDC1F30A52C1F3130140F2FF3341F4B8
:108A200080119A4202DA00200146704740F2334337
:108A30009A42A2F2334202DC5242FFF71DBFFFF717
:108A40000CBF002070470000064C074D06E0E068B0
:108A500040F0010394E8070098471034AC42F6D385
:108A6000FFF79EFBFCDA01081CDB01082DE9F04D45
:108A700000231A461B1A8A4103DB00200146BDE889
:108A8000F08DC1F30A52C1F3130141F480154FF088
:108A9000000BD10702D100186D41521E0027044679
:108AA00040F2FF11384601EB620A3E46804602461C
:108AB00000204FF48011FFF7DFFEC2197141BB188F
:108AC00046EB0100B4EB030C75EB000C04D3E41A85
:108AD00065EB000517460E46241908F101006D41AB
:108AE00080463428E3DDF91946EB0600091BA8414E
:108AF00003D24FF0FF32134601E0002213461BEB76
:108B0000070046EB0A51BDE8F04DFFF70EBF70B508
:108B10008C1810F8015B15F0070301D110F8013B28
:108B20002A1106D110F8012B03E010F8016B01F8AF
:108B3000016B5B1EF9D12B0705D40023521E0DD407
:108B400001F8013BFAE710F8013BCB1A921C03E055
:108B500013F8015B01F8015B521EF9D5A142D8D38D
:108B6000002070BD21B1826842F00102826003E002
:108B7000826822F001028260704700000021084AEA
:108B80001168084A1140D0E900231A4383681A4348
:108B9000C3681A431143044AC2F804137047000023
:108BA00004230140E030FCFF0020014021B1826835
:108BB00042F48072826003E0826822F480728260F4
:108BC000704721B1826842F40072826003E08268DB
:108BD00022F400728260704730B502460020002304
:108BE0005068104C20400D790C6844EA052420435D
:108BF000506090680C4C2040D1E903542C438D68A0
:108C00002C434D7944EA450420439060D06A20F417
:108C100070000C7D641EE4B2234340EA0350D0622E
:108C200030BD0000FFFEFFFCFDF7FFC0F0B50446BD
:108C30000D4600200021092D11DDE068A5F10A068E
:108C400006EB4607072606FA07F18843A5F10A0650
:108C500006EB460603FA06F10843E0600CE02069E3
:108C600005EB4507072606FA07F1884305EB45069D
:108C700003FA06F108432061072A0FDA606B561EDB
:108C800006EB86071F2606FA07F18843561E06EBF9
:108C9000860605FA06F10843606322E00D2A0FDA22
:108CA000206BD61F06EB86071F2606FA07F18843BE
:108CB000D61F06EB860605FA06F10843206310E08E
:108CC000E06AA2F10D0606EB86071F2606FA07F1F9
:108CD0008843A2F10D0606EB860605FA06F1084365
:108CE000E062F0BD816841F0804181607047000022
:108CF000002108460CF0D6F9002101200CF0D2F931
:108D0000002102200CF0CEF9002103200CF0CAF95A
:108D10000BF03AFE012102200BF094FE0121042009
:108D20000BF090FEC22102A010F0F4FE00BFFEE79F
:108D30002E2E5C48415244574152455C7372635C2D
:108D40006E7669632E63000070B506460C4604F02B
:108D50008000802808D104F07F0000EB800106F538
:108D60008E7000EBC10507E004F07F0000EB80018E
:108D700006F55D7000EBC10504F07F00287004F07B
:108D80008000C00968702946304603F0EEFE0020DE
:108D900070BD70B506460C4604F08000802808D1EE
:108DA00004F07F0000EB800106F58E7000EBC1053A
:108DB00005E004EB840106F55D7000EBC1050020C1
:108DC000A87004F07F002870C4F3C01068702946B2
:108DD000304603F0A2FE002070BD2DE9F0410646AA
:108DE0000D4690461F4605F08000802808D105F00A
:108DF0007F0000EB800106F58E7000EBC10407E0F8
:108E000005F07F0000EB800106F55D7000EBC1040A
:108E100005F07F00207005F08000C0096070C4F884
:108E20000880E770607808B12078E080022F01D1D7
:108E3000002020712146304603F023FE0020BDE8CB
:108E4000F0812DE9F04105460E461746984606F09A
:108E50007F0000EB800105F55D7000EBC104E76069
:108E6000C4F814800020A061607006F07F002070BC
:108E7000E878012800D12761207820B921462846CA
:108E800003F023FD03E02146284603F0CFFE002037
:108E9000BDE8F08108B500220092009A61F30A1241
:108EA000009202691268009B1A4303691A6008BDA8
:108EB00070B506460C4604F08000802808D104F006
:108EC0007F0000EB800106F58E7000EBC10505E028
:108ED00004EB840106F55D7000EBC1050120A8706C
:108EE00004F07F002870C4F3C01068702946304633
:108EF00003F06AFE002070BD2DE9F04107460D46E3
:108F00001646984605F07F0000EB800107F58E704D
:108F100000EBC1040120607005F07F002070E66066
:108F200026610020A061C4F81480207820B9214671
:108F3000384603F0CAFC03E02146384603F076FECB
:108F40000020BDE8F081000030B587B00546594CDF
:108F5000284603F080FC01A801F002FD029CE868AD
:108F6000C0680590059820F4705005900598E96850
:108F7000C860284604F022F803280BD10020A8700E
:108F80004FF40070A880059820F4705000F5105040
:108F900005907EE00120A8704020A88046488442C9
:108FA00009D34648844206D2059820F4705000F553
:108FB000605005906DE04148844209D340488442A6
:108FC00006D2059820F4705000F55050059060E0EE
:108FD0003B48844209D33B48844206D2059820F49A
:108FE000705000F54050059053E03648844209D354
:108FF0003548844206D2059820F4705000F5305070
:10900000059046E03048844209D33048844206D275
:10901000059820F4705000F52050059039E02B4859
:10902000844209D32A48844206D2059820F470501D
:1090300000F5105005902CE02548844209D32548BE
:10904000844206D2059820F4705000F50050059037
:109050001FE02048844209D31F48844206D2059865
:1090600020F4705000F5E050059012E01A48844258
:1090700009D31A48844206D2059820F4705000F5AE
:10908000C050059005E0059820F4705000F5A05000
:1090900005900598E968C86000200690069820F4BD
:1090A000005000F5005006900698E96848610120DC
:1090B00007B030BD007A030AC0E1E4000024F400E8
:1090C000E0EC040100C31801002D310140A44C0163
:1090D00000366E0140E2950180C3C90160600B0259
:1090E000F8B50546002400200090284603F0A7FFAD
:1090F000064681E006F0010000287BD0E1B2284658
:1091000000F0F6FA0090009800F0010030B3012062
:1091100000FA04F72869406BB843296948630020C6
:109120000090009820F00100401C009005F118000C
:1091300050F8240000998160E1B23248006842682A
:1091400028469047E878012808D13CB940F2111030
:10915000405D042802D1284603F062FC0098C0F369
:10916000C00060B100200090009820F00800083096
:10917000009005F1180050F82400009981600098D3
:10918000C0F3001060B100200090009820F01000A3
:109190001030009005F1180050F82400009981600B
:1091A0000098C0F3801060B100200090009820F07B
:1091B00040004030009005F1180050F8240000995C
:1091C00081600098C0F3400060B1002000900098DA
:1091D00020F00200801C009005F1180050F82400D7
:1091E000009981600098C0F3C01018B1214628464C
:1091F00000F092FA641C7608002E7FF47BAF012009
:10920000F8BD0000380400207CB50446002500208D
:109210000190204603F01BFF06466FE006F00100B8
:10922000002869D0E9B2204603F019FF01900198A7
:1092300000F00100C8B300200190019820F0010067
:10924000401C019004F1540050F825000199816000
:10925000E078012817D104F1540050F82500006986
:10926000009005EB850104F55D7000EBC10080689E
:109270000099C1F31201411A05EB850204F55D70F6
:1092800000EBC2008161E9B21E4800680268204616
:109290009047E078012808D13DB940F21110005DF7
:1092A000052802D1204603F0BBFB0198C0F3400023
:1092B00060B100200190019820F00200801C019014
:1092C00004F1540050F82500019981600198C0F321
:1092D000C00088B10B48006881682046884700209C
:1092E0000190019820F008000830019004F154002A
:1092F00050F82500019981606D1C7608002E8DD1F3
:1093000001207CBD380400203EB50446A07A78B127
:10931000D4F80C0100680090009820F00200009042
:10932000009820F0010000900099D4F80C01016031
:1093300000200190019820F00100401C019020695C
:10934000406801998843216948600948006881693B
:109350002046884700200290029820F0004000F14B
:10936000004002900298E168486101203EBD000083
:10937000380400207CB5044600200190019820F0BC
:10938000100010300190E068806901998843E1681D
:109390008861E068006A0090009800F00F0000EB20
:1093A000800104F55D7000EBC1050098C0F34340F7
:1093B00007282DD2DFE800F02C04051D1E2C1F000D
:1093C00027E00098C0F30A1090B10098C0F30A1289
:1093D0002046E96803F04DFEE8680099C1F30A11E0
:1093E0000844E860A8690099C1F30A110844A8611B
:1093F0000FE00EE00DE0082204F2CC51204603F00D
:1094000038FEA8690099C1F30A110844A86100E078
:1094100000BF00BFE068806901990843E168886186
:1094200001207CBD38B5044608480068C168204664
:10943000884700200090009820F008000830009035
:109440000098E1684861012038BD00003804002020
:109450001FB50446002000904FF48970005D009015
:109460002348006841692046884720698068019048
:1094700000200390039820F4006000F50060039042
:109480000398E1684861A07A70B3019800F0010088
:1094900050B340F21510005D012825D19DF8000061
:1094A000032821D100200290029820F00100401CE6
:1094B0000290D4F80C01006802990843D4F80C110A
:1094C0000860029820F00200801C0290D4F80C0181
:1094D000006802990843D4F80C1108600548006838
:1094E00040F0060003490860012004B010BD0000F0
:1094F0003804002010ED00E030B587B004460020AD
:10950000029006900590049003900190029820F03C
:109510000100401C0290206940680299884321693B
:1095200048600021204603F01FFD00250BE0FF21CD
:1095300004F1180050F82500816004F1540050F83F
:10954000250081606D1C6078A842F0D84FF0FF3193
:109550002069816106986FF30F00401C0690069801
:1095600080B200F58030069006992069C1610598A7
:1095700020F0080008300590059820F00100401CFC
:109580000590059820F00200801C0590059920693F
:109590004161049820F00100401C0490049820F0E0
:1095A000080008300490049820F00200801C049009
:1095B000049920690161206900680390039820F4F0
:1095C000FE600390039920690160204603F028FAA9
:1095D00000200190019820F4805000F58050019007
:1095E0000198E1684861044800680169204688479D
:1095F000012007B030BD0000380400202DE9F04103
:1096000006460F463946304603F048FD01214FF427
:10961000897081550021801C8155002511E005EBE2
:10962000850106F58E7000EBC10401206070257085
:10963000E5800020E0704020A0600020E0606061D4
:109640006D1C7078A842EAD8002510E005EB850172
:1096500006F55D7000EBC104002060702570E580A8
:10966000E0704020A0600020E06060616D1C7078B8
:10967000A842EBD8304603F0DDF8304602F008FF90
:109680000021304603F072FD304602F094FF304670
:1096900003F032FCBDE8F08138B5044600200090AC
:1096A00007480068C16920468847009820F4801068
:1096B00000F5801000900098E1684861012038BDF5
:1096C0003804002038B504460020009007480068A0
:1096D000016A20468847009820F4001000F5001029
:1096E00000900098E1684861012038BD38040020EE
:1096F00030B5024615692B6915696C6B24FA01F5C2
:1097000005F0010543EAC51302F1180555F821508B
:10971000AD6805EA030030BD2DE9F84306460F4663
:1097200000250020009007EB870106F58E7000EB06
:10973000C104D4E90501451AA068A84200D2A56871
:10974000E81C4FEA900806F1180050F827008069DD
:10975000009029E0D4E90501451AA068A84200D28A
:10976000A568E81C4FEA9008ABB2FAB23046E1684F
:1097700003F023FDE0682844E060A0692844A0616C
:1097800006F1180050F8270080690090D4E905011F
:10979000884209D12178012000FA01F93069406B33
:1097A00020EA090031694863009880B2404506D933
:1097B000D4E90510884202D260690028CAD101208C
:1097C000BDE8F88310B502480AF0FBFA10BD0000AE
:1097D0000001002010B502480AF0F3FA10BD0000A5
:1097E0006401002008B500200090002210211348D9
:1097F00000F0E6F94FF0C051104800F08BF84FF040
:10980000C0510E4800F06CF8002201210C4801F014
:1098100047F90021094800F097F8694609480068AF
:1098200013F0A0FC009838B14FF080500649086052
:10983000BFF34F8FBFF36F8F08BD00005860024029
:10984000003800406802002004ED00E010B50AF086
:1098500075F8012804D11E49087013F087F835E027
:109860000AF06CF8032804D1194908700FF026FC9F
:109870002CE00AF063F848BB1548007801280BD1AA
:1098800013F074F800221021124800F099F9002119
:10989000104800F059F819E00D480078032815D158
:1098A0000FF00CFC002210210A48183800F088F94B
:1098B00000221021074800F083F9002105481838DC
:1098C00000F042F80021034800F03EF810BD00000F
:1098D0001C0200207060024010B510F0A9FA10BD03
:1098E0000246094B9A4201D2084801E00648103866
:1098F00001F000531BB1064B0B40C36002E0044B68
:109900000B4083607047000010640240006002401A
:109910007D0F7D0F0246094B9A4201D2084801E0B3
:109920000648103801F000531BB1064B0B40C360D2
:1099300002E0044B0B40836070470000106402405B
:10994000006002407D0F7D0F21B1026842F00102EC
:10995000026003E0026822F001020260704700002A
:10996000016821F001010160002101604160816016
:10997000C1600161212141614A49884204D13D21F0
:10998000484A103A91608CE046491831884205D126
:109990004FF47461434A103A916082E0414930319A
:1099A000884205D14FF474113E4A103A916078E034
:1099B0003C494831884205D14FF07461394A103A28
:1099C00091606EE037496031884204D13649354AAA
:1099D000103AD16065E033497831884204D1334987
:1099E000304A103AD1605CE02E499031884204D16F
:1099F0002F492C4A103AD16053E02A49A8318842B5
:109A000005D14FF03D51274A103AD16049E029492C
:109A1000884204D13D21274A083A116041E0254996
:109A20001831884205D14FF47461224A083A116016
:109A300037E020493031884205D14FF474111D4A76
:109A4000083A11602DE01B494831884205D14FF09A
:109A50007461184A083A116023E01649603188425F
:109A600004D11149134A121F11601AE011497831CB
:109A7000884204D10D490F4A121F116011E00D49AF
:109A80009031884204D10A490A4A121F116008E045
:109A90000849A831884204D14FF03D51054A121FB0
:109AA00011607047106002403D000020400F002010
:109AB00000003D201064024021B1026842F480227F
:109AC000026003E0026822F480220260704722B143
:109AD000036843F40023036003E0036823F40023D6
:109AE000036001617047014600200A6802F001022C
:109AF0000AB1012000E0002070470146486880B2AA
:109B00007047014600200A6802F400220AB10120D1
:109B100000E000207047000030B503460A460020F0
:109B200000240B4DAB4201D20A4901E0084910392B
:109B300002F000550DB14C6800E00C68064D2C4059
:109B400004EA02050DB1012000E0002030BD000054
:109B500010640240006002407D0F7D0F70B5024628
:109B6000002000240025124EB24201D2114B01E028
:109B70000F4B103B104E0E4036B11E2606EAD12484
:109B8000166806EA040502E0566906F0800501F051
:109B900000560EB15C6800E01C68084E344004EAD0
:109BA000010616B10DB1012000E0002070BD0000DB
:109BB00010640240006002403C0F3C0F7D0F7D0F9F
:109BC00010B501F080034BB122B1436943F080032B
:109BD000436103E0436923F08003436180290BD094
:109BE0002AB1036801F01E042343036004E0036804
:109BF00001F01E04A343036010BD000010B5002255
:109C00000268134B1A40CC680B6823434C6923430A
:109C10008C692343CC6923430C6A23434C6A234356
:109C20008C6A23434C6B23438C6B23431A4302609F
:109C3000426922F00702D1E90B3423431A434261FF
:109C40000B6943604B6883608B68C36010BD000084
:109C50003F801CF041607047704710B510F0FAFA71
:109C600010BD10B5012000F0C5F8FFF7F6FF10BDDC
:109C70007047704770477047704710B54FF4806069
:109C800000F0BEF8012804D1800200F0B3F8FFF71D
:109C9000EFFF4FF4006000F0B3F8012804D1C002D8
:109CA00000F0A8F8FFF7E5FF4FF4805000F0A8F8A7
:109CB000012804D1000300F09DF8FFF7DBFF4FF40B
:109CC000005000F09DF8012804D1400300F092F804
:109CD000FFF7D1FF4FF4804000F092F8012804D143
:109CE000800300F087F8FFF7C7FF4FF4004000F053
:109CF00087F8012804D1C00300F07CF800F001F8D7
:109D000010BD7047704710B5022000F073F8FFF7E0
:109D1000F9FF10BD704710B5042000F06BF8FFF795
:109D2000F9FF10BD704710B5082000F063F8FFF789
:109D3000F9FF10BD08B5002000906946074800688B
:109D400013F010FA009838B14FF0805004490860C1
:109D5000BFF34F8FBFF36F8F08BD0000D806002000
:109D600004ED00E010B5102000F044F8FFF7E2FF2A
:109D700010BD704770477047704710B5202000F045
:109D80003FF8012804D1202000F034F8FFF7F1FF5C
:109D9000402000F035F8012804D1402000F02AF8D6
:109DA000FFF7E8FF802000F02BF8012804D1802085
:109DB00000F020F8FFF7DFFF4FF4807000F020F88C
:109DC000012804D1000200F015F8FFF7D5FF4FF489
:109DD000007000F015F8012804D1400200F00AF8E4
:109DE00000F001F810BD704701490860704700009D
:109DF000143C01400149086070470000143C0140D8
:109E000001460020034A12680A400AB1012000E01E
:109E100000207047143C0140002123498279002A28
:109E20003AD00A46126803689A430B461A600A1D24
:109E3000126803689A430B1D1A60027911440A687C
:109E400003681A430A60184A0832126803689A4382
:109E5000154B08331A601A1D126803689A43124B97
:109E60000C331A604279102A0ED11A1F1268036847
:109E70001A430D4B08331A601A1D126803681A43FF
:109E8000094B0C331A600DE00749427911440A6806
:109E900003681A430A6005E0027911440A680368FE
:109EA0009A430A6070470000003C014030B1074906
:109EB000096841F48061054A116005E003490968B9
:109EC00021F48061014A116070470000003C0240AB
:109ED00070B504460A460026092502B909E0012AA0
:109EE00001D1160205E0022A01D1160201E04FF469
:109EF000407600F09FF80546092D28D115480068E6
:109F000020F4407013490860084600683043086038
:109F10000846006820F0F80008600846006844F031
:109F2000020108430B4908600846006840F480308D
:109F3000086000F07FF805460648006820F002003F
:109F4000044908600846006820F0F80008602846C8
:109F500070BD0000103C024009201349096801F45B
:109F60008031B1F5803F01D101201CE00E49096824
:109F700001F0100109B1062015E00B49096801F450
:109F8000807109B102200EE00749096801F0EF0174
:109F900009B1072007E00449096801F0020109B18D
:109FA000082000E0092070470C3C0240034800688C
:109FB00040F000400149086070470000103C02403A
:109FC00030B502460C46092500F034F80546092D47
:109FD00019D10E48006820F440700C49086008460A
:109FE000006840F4007008600846006840F0010016
:109FF0000860146000F01EF805460448006820F070
:10A00000010002490860284630BD0000103C0240B3
:10A010000548006800F0004028B1044802490C39A6
:10A020000860034808607047103C02402301674500
:10A03000AB89EFCD08B509200090FFF78DFF0090A8
:10A0400002E0FFF789FF00909DF800000128F8D09A
:10A050009DF8000008BDF0B50A4600210023002449
:10A0600000BF3DE0012505FA01F3156805EA030488
:10A070009C4234D105684F000326BE40B5430560BD
:10A0800015794E00B5400668354305601579012DF8
:10A0900002D01579022D16D185684F000326BE40E7
:10A0A000B543856055794E00B54086683543856077
:10A0B000456801268E40B5434560456896798E40D7
:10A0C000B6B235434560C5684F000326BE40B54370
:10A0D000C560D5794E00B540C6683543C560491C9A
:10A0E0001029BFD3F0BDF0B5002300244D07ED0EBD
:10A0F00002FA05F3CE1000F1200555F826504E0760
:10A10000F70E0F26BE40B543CF1000F1200646F8EB
:10A110002750CE1000F1200555F8265045EA0304DB
:10A12000CE1000F1200545F82640F0BD0246002083
:10A1300013690B400BB1012000E000207047418300
:10A140007047018370474FF6FF7101600021017174
:10A1500041718171C171704770B50A480468001D72
:10A160000568001D0668344454B10822064920469B
:10A1700000F0E7FA042204491031284600F0E1FA21
:10A1800070BD0000107AFF1F4605002070B506461E
:10A190003048007800285BD12F480068B0F5007F78
:10A1A00002D100202C4908602B4800682B4909681F
:10A1B000884203D100202749087070BD26480068F6
:10A1C00026490968884206D923480068C0F500700E
:10A1D0002349086006E0214800681F490968401AC1
:10A1E0001F4908601E480068402811D91A48008895
:10A1F00085B2402418480068403017490860184864
:10A20000006840381649086001201249087018E0BB
:10A210001148008885B21248008884B20E48006850
:10A220000F49096808440C49086000200C4908607F
:10A23000402C03D102200749087002E001200549A3
:10A24000087008484219234681213046FEF754FE23
:10A2500000BFB2E7640400205C0400205804002022
:10A2600060040020CB84002010B5024809F002FEF3
:10A2700010BD00000001002010B5024809F044FEA6
:10A2800010BD00000001002010B5024809F0F2FDE9
:10A2900010BD00006401002010B5024809F034FE32
:10A2A00010BD00006401002021B1028842F48062E8
:10A2B000028004E002884FF6FF331A4002807047A4
:10A2C000002221F07F42D3438382704721B18288EC
:10A2D00042F40062828004E082884FF2FF731A40E9
:10A2E0008280704721B1828842F48052828004E0EB
:10A2F00082884EF6FF731A408280704710B504467C
:10A300001348844209D10121480500F0EFFA0021E9
:10A310004FF4001000F0EAFA18E00E48844209D128
:10A320000121880500F0E2FA00214FF4800000F0DE
:10A33000DDFA0BE00848844208D10121C80500F08D
:10A34000D5FA00214FF4000000F0D0FA10BD000053
:10A350000054004000580040005C00400CB502462C
:10A36000002000230193009300920B0F019321F032
:10A370007F41019B1BB1009B1433009303E0090C48
:10A38000009B18330093009B1B680B400BB101200E
:10A3900000E000200CBD1AB183880B43838002E0EB
:10A3A00083888B43838070472DE9FF4704460D4621
:10A3B0000026B1460427DFF8CC80A6884FF6C0708F
:10A3C0000640684600F0CCFADDF808802E48B8FB5D
:10A3D000F0F01FFA80F946EA0906A68020884FF6B9
:10A3E000FE710840208000262849286888420CD841
:10A3F00028684000B8FBF0F087B2042F00DA042789
:10A400003E4309F10100208427E0E8884BF6FF7104
:10A41000884206D1286800EB4000B8FBF0F087B214
:10A4200009E0286800EBC00101EB0010B8FBF0F078
:10A4300087B247F48047C7F30B0008B947F001071C
:10A4400047F4004006434FF4967009FB00F04FF4C8
:10A450007A7190FBF1F0401C2084A683208840F0A4
:10A460000100208026884FF6F5300640A8886989CB
:10A47000084306432680A889298908432081BDE82E
:10A48000FF87000000127A0040420F00A086010002
:10A490000146088AC0B2704712B141F0010101E0E3
:10A4A00001F0FE0101827047018270474CF6CC40FA
:10A4B0000149086070470000003000404AF6AA20B9
:10A4C00001490860704700000030004001494860C1
:10A4D000704700000030004001498860704700006C
:10A4E0000030004001490860704700000030004023
:10A4F00010B500217F200DF085FAAD2161200DF00F
:10A5000081FA03217F200DF07DFA002140200DF01B
:10A5100079FA05217F200DF075FAB32141200DF065
:10A5200071FAF12143200DF06DFA142145200DF050
:10A5300069FA32215B200DF065FA34215F200DF0BD
:10A5400061FA08217B200DF05DFA06217F200DF0D5
:10A5500059FA1B2144200DF055FABF2140200DF07F
:10A5600051FA3F214E200DF04DFA08217F200DF0C9
:10A5700049FA202165200DF045FA18216A200DF0D6
:10A5800041FA09217F200DF03DFAAF214F200DF057
:10A5900039FA40215F200DF035FA802148200DF076
:10A5A00031FA802149200DF02DFA772157200DF046
:10A5B00029FA782160200DF025FA782161200DF02C
:10A5C00021FA082162200DF01DFA502163200DF0C0
:10A5D00019FA0A217F200DF015FA602145200DF0AF
:10A5E00011FA00217F200DF00DFA11214D200DF000
:10A5F00009FA802155200DF005FA1F2174200DF075
:10A6000001FA1F2175200DF0FDF978214A200DF087
:10A61000F9F978214B200DF0F5F9082144200DF0CF
:10A62000F1F9502145200DF0EDF9FF2164200DF0E6
:10A63000E9F91F2165200DF0E5F914217F200DF0C7
:10A64000E1F9672165200DF0DDF9082166200DF0A4
:10A65000D9F9702163200DF0D5F915217F200DF077
:10A66000D1F9482108460DF0CDF907217F200DF0E2
:10A67000C9F90D2141200DF0C5F9142143200DF039
:10A68000C1F90E214B200DF0BDF90F2145200DF031
:10A69000B9F9422144200DF0B5F980214C200DF08C
:10A6A000B1F910217F200DF0ADF902215B200DF0F2
:10A6B000A9F907217F200DF0A5F9412140200DF0D7
:10A6C000A1F9002170200DF09DF90A2010F0E4F9A5
:10A6D000442132200DF096F907217F200DF092F9E8
:10A6E000402108460DF08EF906217F200DF08AF9F1
:10A6F000F02162200DF086F9002163200DF082F92F
:10A700000D217F200DF07EF9C02148200DF07AF94F
:10A71000D5216F200DF076F900217F200DF072F920
:10A72000A0215B200DF06EF9A8214E200DF06AF9F2
:10A7300050215A200DF066F9802140200DF062F979
:10A7400010BD30B50B46002100BF16E00A24B4EB63
:10A75000107F05D9302404EB107403F8114005E094
:10A76000412404EB10740A3C03F811400001002559
:10A770004C00641C1D554C1CE1B29142E6DB30BD1F
:10A78000002108460AF08EFC002101200AF08AFC14
:10A79000002102200AF086FC002103200AF082FC3E
:10A7A0000AF0F2F8012102200AF04CF901210420FC
:10A7B0000AF048F9AE2102A00FF0ACF900BFFEE7A5
:10A7C0002E2E5C48415244574152455C7372635C83
:10A7D0006E7669632E6300007047000070B500213B
:10A7E00000230F22C4781CB3174C246804F4E064DF
:10A7F000C4F5E064C4F30721C1F10404E3B20A41E3
:10A8000044789C40E1B28478144021430C07210E27
:10A810000E4C05786155047804F01F050124AC4006
:10A8200005786D11AD0005F1E025C5F8004109E09E
:10A83000047804F01F050124AC40054D067876111C
:10A8400045F8264070BD00000CED00E000E400E09B
:10A8500080E100E002490143024A116070470000B4
:10A860000000FA050CED00E0024A0A400243024BE8
:10A870001A60704780FFFF1F08ED00E010B5024826
:10A8800001F0B8F910BD0000CC86002029B1064ABD
:10A8900012680243044B1A6004E0034A12688243C0
:10A8A000014B1A60704700003038024029B1064A57
:10A8B00012680243044B1A6004E0034A12688243A0
:10A8C000014B1A60704700003438024029B1064A33
:10A8D00012680243044B1A6004E0034A1268824380
:10A8E000014B1A60704700004038024029B1064A07
:10A8F00012680243044B1A6004E0034A1268824360
:10A90000014B1A60704700002038024029B1064A06
:10A9100012680243044B1A6004E0034A126882433F
:10A92000014B1A60704700004438024029B1064AC2
:10A9300012680243044B1A6004E0034A126882431F
:10A94000014B1A6070470000243802400348006839
:10A9500040F0807001490860704700007438024080
:10A96000F0B5002100220024022500260223324FE8
:10A970003F6807F00C0121B1042905D0082937D11F
:10A9800005E02E4F076036E02D4F076033E02A4F79
:10A990003F1F3F68C7F38056274F3F1F3F6807F0B0
:10A9A0003F036EB1264FB7FBF3F7DFF88CC0ACF175
:10A9B000040CDCF800C0CCF3881C07FB0CF40CE0A2
:10A9C0001E4FB7FBF3F7DFF870C0ACF1040CDCF8F6
:10A9D00000C0CCF3881C07FB0CF4174F3F1F3F68E7
:10A9E000C7F301477F1C7D00B4FBF5F7076002E069
:10A9F000124F076000BF00BF0F4F3F6807F0F00124
:10AA00000909104F7A5C0768D74047600A4F3F68D2
:10AA100007F4E051890A0B4F7A5C4768D74087609A
:10AA2000054F3F6807F46041490B064F7A5C476861
:10AA3000D740C760F0BD0000083802400024F40091
:10AA400000127A008903002010B50146002200237D
:10AA500000204A11012A02D10A4C236808E0022A88
:10AA600003D1084C7034236802E0064C7434236828
:10AA700001F01F02012494401C400CB1012000E0B1
:10AA8000002010BD0038024021B1028842F040028F
:10AA9000028004E002884FF6BF731A4002807047BC
:10AAA0001AB183880B43838002E083888B438380C1
:10AAB0007047000010B504462448844208D10121A3
:10AAC0008014FFF733FF0021A014FFF72FFF3CE0B5
:10AAD0001F48844208D101210014FFF707FF00211D
:10AAE0002014FFF703FF30E01A48844208D1012107
:10AAF000C013FFF7FBFE0021E013FFF7F7FE24E091
:10AB00001548844208D101214014FFF70FFF0021AE
:10AB10006014FFF70BFF18E01048844209D10121AF
:10AB20000805FFF703FF00214FF48010FFF7FEFE3A
:10AB30000BE00B48844208D101214805FFF7F6FEDF
:10AB400000214FF40010FFF7F1FE10BD003001406E
:10AB500000380040003C00400034014000500140FB
:10AB60000054014010B50022028802F441520B88C3
:10AB70004C8823438C882343CC8823430C8923436C
:10AB80004C8923438C892343CC8923431A43028075
:10AB9000838B4FF2FF74234083830B8A038210BDA3
:10ABA00038B50446002000901C48007808B1012008
:10ABB00038BD1B48046076201A490870322007F01F
:10ABC000F3FD6B460D22174801781548006809F01F
:10ABD0003EF89DF80000102805D19DF8001012A045
:10ABE00002F0CCFB01E00020E2E70EF007FB0622BA
:10ABF000042100200EF05EFC0622042101200EF04C
:10AC000059FC07230822074801780548006809F025
:10AC10009EF801200149087000BFC9E778020020B2
:10AC2000740200207002002053504C3036204944FA
:10AC30002049533A20307825580A000010B52DEDF0
:10AC40000C8BB0EE408AB5EEC08AF1EE10FA37DD1B
:10AC50009FED1D0AC0EE080A10EE904A2046FDF74F
:10AC600055FD41EC1D0B9FED191BB0EE4D0AF0EEAA
:10AC70006D0A02F031FEB0EE40CAF0EE60CA9FED00
:10AC8000150B53EC102B51EC1C0BFDF70BFC41EC9E
:10AC90001B0B9FED120B53EC102BFDF709FC41EC45
:10ACA0001A0B9FED100B53EC102BFDF773FC41ECCE
:10ACB000190BFDF76FFD00EE100ABDEC0C8B10BDFB
:10ACC0009FED0A0AF9E70000CDEC7D4428610C876E
:10ACD0008A5AC83F000000000000F03F00000060FA
:10ACE00066A2724000000080BE9F7A3F0000000014
:10ACF00001461C48814201D2002070471A48814217
:10AD000001D20820F9E71948814201D21020F4E766
:10AD10001748814201D21820EFE71648814201D23C
:10AD20002020EAE71448814201D22820E5E71348B1
:10AD3000814201D23020E0E71148814201D238201F
:10AD4000DBE71048814201D24020D6E70E4881421D
:10AD500001D24820D1E70D48814201D25020CCE7F2
:10AD60005820CAE7004000080080000800C0000822
:10AD700000000108000002080000040800000608A6
:10AD80000000080800000A0800000C0800000E0877
:10AD900030B503460C461546002206E0184600F082
:10ADA00007F844F822001B1D521CAA42F6D330BDFE
:10ADB00001460868704700002DE9F04704460E463A
:10ADC00017464FF009080025A946B4F1006F02D3D9
:10ADD00004F0030008B1BDE8F087FFF719F900207F
:10ADE000FFF764F8254604EB87091848854215D219
:10ADF00011E02846FFF7DCFF401C58B12846FFF75A
:10AE000077FF82460221FFF763F88046B8F1090F09
:10AE100001D002E02D1D4D45EBD300BFB8F1090F65
:10AE20000CD108E020463168FFF7CAF8092800D0A5
:10AE300003E0241D361D4C45F4D300BF0120FFF76D
:10AE400035F8FFF7B3F800BFC5E700000000FF1FAB
:10AE500030B500228B071C0F0F2303FA04F20B4BB3
:10AE60008C1053F824309343084C8D1044F825304F
:10AE700023468C1053F824308C07240F00FA04F476
:10AE80002343024C8D1044F8253030BD0838014072
:10AE90000CB50020019000903348006840F48030E9
:10AEA0003149086000BF3048006800F4003000906D
:10AEB0000198401C0190009818B90198B0F5A04F76
:10AEC000F1D12948006800F4003010B10120009051
:10AED00001E0002000900098012844D12248403031
:10AEE000006840F080502049403108601F480068E9
:10AEF00040F440401D4908601B48083000681A496A
:10AF0000083108600846006808600846006840F498
:10AF1000805008601648091F0860081F006840F04C
:10AF20008070091F086000BF0F48006800F00070C3
:10AF30000028F9D040F202700E4908600A48083033
:10AF4000006820F0030008490831086008460068DE
:10AF500040F00200086000BF03480830006800F0BD
:10AF60000C000828F8D10CBD0038024000700040E9
:10AF700008304004003C0240042808D14FF0E02192
:10AF8000096941F004014FF0E022116107E04FF040
:10AF9000E021096921F004014FF0E02211617047BE
:10AFA00010B512F0C5F9012802D011F0BBFE04E083
:10AFB00002480068401C0149086010BD18020020CA
:10AFC00010B51548006840F4700013490860134834
:10AFD000006840F001001149086000200F49083165
:10AFE00008600E4800680E4908400C4908600D488A
:10AFF000091D0860081F006820F48020091F0860F0
:10B00000002006490C310860FFF742FF4FF0006056
:10B0100001498039086010BD88ED00E00038024029
:10B02000FFFFF6FE1030002421B1028842F08002BA
:10B03000028004E002884FF67F731A400280704756
:10B0400021B1028842F00102028004E002884FF63A
:10B05000FE731A40028070471AB183890B438381C3
:10B0600002E083898B4383817047000010B504465A
:10B070005548844208D101210846FFF757FC0021BA
:10B080000120FFF753FC9DE0B4F1804F08D101216E
:10B090000846FFF72BFC00210120FFF727FC91E079
:10B0A0004A48844208D101210220FFF71FFC0021F9
:10B0B0000220FFF71BFC85E04548844208D10121AE
:10B0C0000420FFF713FC00210420FFF70FFC79E0B8
:10B0D0004048844208D101210820FFF707FC0021E5
:10B0E0000820FFF703FC6DE03B48844208D10121B2
:10B0F0001020FFF7FBFB00211020FFF7F7FB61E0BA
:10B100003648844208D101212020FFF7EFFB0021BF
:10B110002020FFF7EBFB55E03148844208D10121A4
:10B120000220FFF703FC00210220FFF7FFFB49E0AC
:10B130002C48844209D101210804FFF7F7FB0021C4
:10B140004FF48030FFF7F2FB3CE02748844209D1FE
:10B1500001214804FFF7EAFB00214FF40030FFF71C
:10B16000E5FB2FE02148844209D101218804FFF743
:10B17000DDFB00214FF48020FFF7D8FB22E01C48C4
:10B18000844208D101214020FFF7B0FB002140207C
:10B19000FFF7ACFB16E01748844208D1012180205C
:10B1A000FFF7A4FB00218020FFF7A0FB0AE0124874
:10B1B000844207D101218015FFF798FB0021A015DB
:10B1C000FFF794FB10BD00000000014000040040A8
:10B1D00000080040000C0040001000400014004037
:10B1E000000401400040014000440140004801408B
:10B1F00000180040001C00400020004070B50024F2
:10B2000000220023058C4FF6FE7635400584028C23
:10B210008388048B4FF68F752C40B51E2C400D880B
:10B220002C43751E2A408D892A434D882A43104D90
:10B23000A84202D00F4DA84213D14FF6F7752A400D
:10B24000CD892A434FF6FB752A408D882A434FF655
:10B25000FF652B404FF6FF552B400D8A2B434D8A3F
:10B260002B43838004838D684563028470BD000096
:10B2700000000140000401400A460021018B4FF606
:10B28000F7731940114301837047000070B5002423
:10B2900000220023058C4FF6EF7635400584028CA2
:10B2A0008388048B48F6FF752C404FF6FF452C40F1
:10B2B0000D884FF6FF7606EA05252C434FF6DF751D
:10B2C0002A408D8906EA05152A434D8806EA0515A8
:10B2D0002A43154DA84202D0144DA8421DD14FF665
:10B2E0007F752A40CD894FF6FF7606EA05152A4379
:10B2F0004FF6BF752A408D8806EA05152A434FF69A
:10B30000FF352B404FF2FF752B400D8A06EA85056D
:10B310002B434D8A06EA85052B43838004838D6881
:10B320008563028470BD00000000014000040140FC
:10B330000A460021018B4FF2FF7319404FF6FF734D
:10B3400003EA0223194301837047000070B500240B
:10B3500000220023058C4FF6FF6635400584028CE1
:10B360008388848B4FF68F752C404FF6FC752C40EC
:10B370000D882C434FF6FF552A408D894FF6FF76F6
:10B3800006EA05252A434D8806EA05252A43154D78
:10B39000A84202D0144DA8421DD14FF2FF752A4099
:10B3A000CD894FF6FF7606EA05252A434FF6FF358D
:10B3B0002A408D8806EA05252A434EF6FF752B4064
:10B3C0004DF6FF752B400D8A06EA05152B434D8A75
:10B3D00006EA05152B43838084838D68C563028448
:10B3E00070BD000000000140000401400A46002139
:10B3F000818B4FF6F7731940114381837047416386
:10B40000704781637047C163704700000022028863
:10B41000184B98420ED0184B98420BD0B0F1804F89
:10B4200008D0164B984205D0154B984202D0154BC8
:10B43000984204D14FF68F731A404B881A43124B2F
:10B44000984207D0114B984204D04FF6FF431A4060
:10B450000B891A4302804B68C3620B880385054B36
:10B46000984202D0044B984201D18B7A0386012383
:10B470008382704700000140000401400004004046
:10B4800000080040000C0040001000400014004084
:10B490001CB50020009040F22551084800F034F817
:10B4A00058B1064800F0EAF8C0B2019000236A469D
:10B4B00001A90348006811F007FE1CBD00100140FF
:10B4C0004802002010B50EF0CBFD10BD01F4007253
:10B4D000B2F5007F00D100BFCA430280704721B19E
:10B4E000828942F40052828104E082894DF6FF7322
:10B4F0001A40828170471AB1838A0B43838202E02B
:10B50000838A8B438382704770B5024600240023F0
:10B510000025002040F66A16B14200D100BFC1F3F9
:10B52000421501F01F03012606FA03F3012D02D193
:10B530009689334006E0022D02D1168A334001E09D
:10B54000968A33400C12012606FA04F41688344019
:10B5500013B10CB1012000E0002070BDF0B503462E
:10B56000002400260025002040F66A17B94200D1C9
:10B5700000BF1846C1F3421401F01F06012707FA65
:10B5800006F5012C01D10C3004E0022C01D1103061
:10B5900000E014301AB107682F43076002E0076823
:10B5A000AF430760F0BD00002DE9FF4705460E469A
:10B5B0000024A14600BFA046B08900B100BF2C8A7C
:10B5C00024F44054F08804432C82AC8941F20C608E
:10B5D0008443B08831890843718908430443AC81AE
:10B5E000AC8A24F44074B0890443AC826846FFF707
:10B5F000B7F92048854202D01F48854202D1DDF8C4
:10B600000C9001E0DDF80890A88900F4004040B1FA
:10B6100009EBC90000EB091031684900B0FBF1F7F4
:10B6200007E009EBC90000EB091031688900B0FBA5
:10B63000F1F76420B7FBF0F004012009642101FB5D
:10B640001078A88900F4004040B1322000EBC80017
:10B65000B0FBF1F000F00700044308E0322000EBFB
:10B6600008106421B0FBF1F000F00F0004432C81BE
:10B67000BDE8FF87001001400014014001468888A2
:10B68000C0F308007047C1F308028280704770B5AC
:10B6900004460D46D4F8E405294642682046904702
:10B6A000002070BD70B504460D464FF48970005DF2
:10B6B000022802D0032812D100E000BF68880128C8
:10B6C0000CD100214FF48C700151D4F8E4052946C7
:10B6D000826820469047204600F075F804E029462D
:10B6E000204600F021F800BF00BF70BD2DE9F041F9
:10B6F00006460C46154600272B46224600213046BA
:10B70000FDF79FFB3846BDE8F0812DE9F041064684
:10B710000C46154600272B46224600213046FDF7F1
:10B72000EBFB3846BDE8F08170B504460D4680213C
:10B730002046FDF7BDFB00212046FDF7B9FB204662
:10B7400001F06EF970BD2DE9F04104460E46154634
:10B750000027C4F89453C4F89053032140F2111009
:10B7600001552B46324600212046FDF76AFB38463C
:10B77000BDE8F08170B504460025052140F21110A6
:10B78000015500231A4619462046FDF75AFB20466C
:10B7900001F046F9284670BD2DE9F04104460E46F9
:10B7A00015460027C4F83C51C4F83851022140F234
:10B7B000111001552B46324600212046FDF79CFB17
:10B7C0003846BDE8F08170B504460025042140F2FA
:10B7D0001110015500231A4619462046FDF78CFB2F
:10B7E000204601F01DF9284670BD70B505460E468D
:10B7F000002E5DD105F58E7440F21110405D0228D7
:10B8000049D1A168E069884217D9A168E069401A66
:10B81000E061E878012803D1D4E902100844E0602F
:10B82000A08B82B22846E168FFF76FFF00231A461B
:10B8300019462846FDF705FB2DE0A168206AB0FBFC
:10B84000F1F201FB1200A8B9A168206A884211D365
:10B85000D4E9080188420DD2002211462846FFF79C
:10B8600054FF0020606200231A4619462846FDF75F
:10B87000E8FA10E0D5F8E405C06848B14FF48970E3
:10B88000405D032804D1D5F8E405C16828468847FF
:10B890002846FFF76FFF4FF48B70405D012816D1EB
:10B8A000284600F063FA00214FF48B7041550EE0FA
:10B8B000D5F8E405406950B14FF48970405D032824
:10B8C00005D1D5F8E4053146426928469047002065
:10B8D00070BD70B505460E46A6BB05F55D7440F219
:10B8E0001110405D03283DD1A168E069884217D955
:10B8F000A168E069401AE061E878012803D1D4E941
:10B9000002100844E060A368E069984201D2E0694F
:10B9100000E0A06882B22846E168FFF7E7FE21E078
:10B92000D5F8E405006948B14FF48970405D0328FB
:10B9300004D1D5F8E4050169284688472846FFF771
:10B9400042FF0FE0FFE7D5F8E405806950B14FF4FE
:10B950008970405D032805D1D5F8E4053146826938
:10B9600028469047002070BD014600207047000027
:10B9700070B504460D46E888012804D029462046C3
:10B98000FFF7D2FE1AE04FF48970005D022802D062
:10B9900003280DD105E0012209492046FFF7FCFEEE
:10B9A0000BE0012204F588712046FFF7F5FE04E064
:10B9B00029462046FFF7B8FE00BF00BF70BD00005B
:10B9C00040040020F8B504460E46F08800907088C8
:10B9D0000012082862D2DFE800F061040C186161EF
:10B9E000575CA078D4F8EC150A686946904705467C
:10B9F00059E0A078D4F8E4158A6A6946904705466C
:10BA000002216970C4F8F0554DE0B078062834D2B0
:10BA1000DFE800F0030B131B232BA078D4F8EC1500
:10BA20004A686946904705462CE0A078D4F8EC15A2
:10BA30008A6869469047054624E0A078D4F8EC155A
:10BA4000CA686946904705461CE0A078D4F8EC1512
:10BA50000A6969469047054614E0A078D4F8EC15C9
:10BA60004A696946904705460CE0A078D4F8EC1581
:10BA70008A6969469047054604E031462046FFF74B
:10BA800053FEF8BD00BF0EE031462046FFF74CFEE6
:10BA9000F7E731462046FFF747FEF2E731462046FA
:10BAA000FFF742FEEDE700BFBDF8000088B1F08867
:10BAB00078B1F088BDF80010884202DDBDF80000C2
:10BAC00000E0F0880090BDF8002029462046FFF7EE
:10BAD00063FE00BFD5E70146002002E0421CD0B261
:10BAE000491C0A78002AF9D17047000070B5044655
:10BAF0000D464FF48970005D022802D0032813D14F
:10BB000000E000BF01200C4908604FF48C70005920
:10BB100020B10846006840F0020008600222064991
:10BB20002046FFF739FE04E029462046FFF7FCFDDA
:10BB300000BF00BF70BD0000440400202DE9F041AB
:10BB400004460D4617460026FCB12046FFF7C3FF0A
:10BB5000022101EB400038803A783046711CCEB2A9
:10BB60002A5403223046711CCEB22A540AE014F83B
:10BB7000012B3046711CCEB22A5400223046711C73
:10BB8000CEB22A5420780028F1D1BDE8F0812DE909
:10BB9000F04104460F4615461E46DDF81880204643
:10BBA00000F030FC2046FFF7DFFEC4F8E465C4F87F
:10BBB000E885C4F8EC5539462046FDF71FFDD4F85A
:10BBC000E81508688047204600F006FCBDE8F081D3
:10BBD00010B50446D4F8E405016A204688470020E1
:10BBE00010BD10B50446D4F8E405416A20468847E4
:10BBF000002010BD7CB505460024284601F00CFA53
:10BC0000002865D0284601F012FA0190019808B981
:10BC100000207CBD0198C0F3C04018B12846FDF754
:10BC2000F3FA04430198C0F3804018B12846FDF7A9
:10BC300057FA04430198C0F3400050B1002000902F
:10BC4000009820F00200801C00900098E96848618C
:10BC500000BF0198C00F18B12846FDF755FB0443FB
:10BC60000198C0F3C02018B12846FDF7F1FB04434A
:10BC70000198C0F3C00018B12846FDF7D3FB044378
:10BC80000198C0F3001018B12846FDF773FB044378
:10BC90000198C0F3003018B12846FDF72DFC04438D
:10BCA0000198C0F3403018B12846FDF74DF9044320
:10BCB0000198C0F3005018B12846FDF7EDFC04438D
:10BCC0000198C0F3405018B12846FDF7FBFC04432F
:10BCD00020469EE790F8CC250A7090F8CD254A7052
:10BCE00090F8CE3590F8CF2503EB02224A8090F8E9
:10BCF000D03590F8D12503EB02228A8090F8D23516
:10BD000090F8D32503EB0222CA80CB884FF4A072AF
:10BD10001350012340F211121354704710B504461A
:10BD20000023402219462046FDF757F80023402201
:10BD300080212046FDF751F801214FF4897001550B
:10BD4000A078D4F8E82551688847002010BD10B5C8
:10BD50000446D4F8E8150869804740F21310015DE5
:10BD6000401E015503210155002010BD0146034826
:10BD70000268086942600020704700000804002043
:10BD800010B50446D4F8E405C06920B1D4F8E40540
:10BD9000C16920468847002010BD70B504460D4695
:10BDA000A88818BBE88808BBA87800F07F064FF485
:10BDB0008970005D032804D129462046FFF7B4FCB2
:10BDC00018E04FF48A70065531462046FDF762F8B8
:10BDD0002046FFF7F8FC26B102214FF48970015587
:10BDE00008E001214FF48970015503E029462046FF
:10BDF000FFF79AFC70BD70B504460D46D4F8E40513
:10BE00002946026820469047D4F8E815886880479C
:10BE1000002070BD70B504460D46A8783049087002
:10BE200008460078012804DD29462046FFF77CFCFF
:10BE300055E04FF48970005D022802D0032848D1F4
:10BE400017E02748007880B12548007884F8100171
:10BE500003214FF489700155214801782046FFF7EE
:10BE6000CAFF2046FFF7AFFC02E02046FFF7ABFC1D
:10BE700034E01B48007880B902214FF489700155E5
:10BE80001748007884F81001154801782046FFF71C
:10BE9000FEFB2046FFF797FC1AE094F810011049CA
:10BEA0000978884211D094F810112046FFF7EFFB73
:10BEB0000B48007884F81001094801782046FFF704
:10BEC0009AFF2046FFF77FFC02E02046FFF77BFC4D
:10BED00004E029462046FFF727FC00BF00BF70BDE5
:10BEE00048040020F8B504460D460026688801285D
:10BEF0000DD101214FF48C700151D4F8E40529468D
:10BF00008268204690472046FFF75DFC3FE0688846
:10BF100002283CD12879D0BB206940680090A888CD
:10BF20000612062E22D2DFE806F02103090F151BA8
:10BF3000009820F07000103000901DE0009820F074
:10BF400070002030009017E0009820F07000303032
:10BF5000009011E0009820F07000403000900BE05D
:10BF6000009820F070005030009005E0009820F01C
:10BF700070001030009000BF00BF054800990160BC
:10BF800001214FF48B7001552046FFF71CFCF8BDD2
:10BF9000080400201CB5044669462046FFF79AFEB7
:10BFA0009DF8000000F01F0020B1012807D00228F2
:10BFB0000FD109E06946204600F016F811E0694605
:10BFC000204600F007F90CE06946204600F046F8EC
:10BFD00007E09DF8000000F080012046FCF768FFB4
:10BFE00000BF00BF00201CBD70B505460C460026F2
:10BFF00060780A2829D2DFE800F01923281E280AD1
:10C000000528140F21462846FFF7DCFC22E02146D4
:10C010002846FFF7C2FE1DE021462846FFF7FAFE3C
:10C0200018E021462846FFF7A3FC13E021462846E6
:10C03000FFF75CFD0EE021462846FFF753FF09E0BD
:10C0400021462846FFF72EFB04E021462846FFF74D
:10C050006BFB00BF00BF304670BD00002DE9F04112
:10C0600005460E4600273479307800F0600020281D
:10C0700008D1D5F8E405314682682846904738460D
:10C08000BDE8F0817078002857D001282BD0032814
:10C0900075D14FF48970405D022802D003281BD16E
:10C0A00007E02CB1802C03D021462846FCF700FF86
:10C0B00017E0708830B92CB1802C03D02146284677
:10C0C000FCF7F6FED5F8E40531468268284690472D
:10C0D0002846FFF778FB04E031462846FFF724FBAB
:10C0E00000BF00BF70E04FF48970405D022802D0AD
:10C0F00003281BD107E02CB1802C03D02146284611
:10C10000FCF7D6FE17E0708878B95CB1802C09D0B6
:10C1100021462846FCF73DFED5F8E4053146826805
:10C12000284690472846FFF74EFB04E03146284654
:10C13000FFF7FAFA00BF00BF46E04FF48970405D98
:10C14000022802D0032837D107E02CB1802C03D07D
:10C1500021462846FCF7ACFE33E004F0800080283E
:10C1600012D104F07F0000EB800105F58E7000EB2A
:10C17000C100807820B101201549086016E022E056
:10C1800000201349086011E004F0800070B904EB4E
:10C19000840105F55D7000EBC100807818B10120C5
:10C1A0000B49086002E000200949086002220849A2
:10C1B0002846FFF7F1FA04E031462846FFF7B4FAC3
:10C1C00000BF00BF00E000BF00BF384658E70000D6
:10C1D0003C04002070B504460D4600264FF48970DB
:10C1E000005D032814D1287901280CDCD4F8E4057B
:10C1F0002946826820469047E88840B93EB92046E3
:10C20000FFF7E1FA03E029462046FFF78DFA04E044
:10C2100029462046FFF788FA00BF00BF304670BDB0
:10C2200010B504464FF48970015D401C015504218E
:10C23000401E0155D4F8E815C8688047002010BD9D
:10C2400070B505460C462DB92246064906A0FFF7F3
:10C2500075FC04E02246034903A0FFF76FFC014888
:10C2600070BD0000888D002056435020436F6E66DD
:10C2700069670000012001490870704760050020CF
:10C280000120014908707047600500200246122015
:10C290000880014870470000240500200020014963
:10C2A000087070476005002010B1012802D100E03D
:10C2B00001E000E000BF00BF704770470020014967
:10C2C00008707047600500207047000070B5054693
:10C2D0000C462DB92246064906A0FFF72FFC04E0C4
:10C2E0002246034903A0FFF729FC014870BD000066
:10C2F000888D002056435020496E746572666163D4
:10C3000065000000024604200880014870470000D4
:10C310004005002070B505460C462246024903A0A0
:10C32000FFF70CFC004870BD888D002053544D6908
:10C3300063726F656C656374726F6E69637300001E
:10C3400070B505460C462DB92246064906A0FFF7F2
:10C35000F5FB04E0224603490CA0FFF7EFFB014880
:10C3600070BD0000888D002053544D333220566933
:10C37000727475616C20436F6D506F727420696EBA
:10C38000204853206D6F64650000000053544D3306
:10C3900032205669727475616C20436F6D506F72F4
:10C3A0007420696E204653204D6F646500000000C4
:10C3B00070B505460C461A202080FDF7CDFE0148D9
:10C3C00070BD00004405002002464320088001485B
:10C3D000704700009C04002038B504464FF44070BC
:10C3E000FEF738FA43208DF800000A208DF801008E
:10C3F00000208DF8020001208DF803006846FEF74A
:10C40000EDF938BD1CB5044601210846FEF73EFA99
:10C410004FF4C050009003208DF8050002208DF8E5
:10C42000040000208DF806008DF8070069460B48CF
:10C43000FDF711FE0A220B210848FDF754FE0A22DF
:10C440000C210648FDF74FFE01218803FEF75EFA36
:10C4500001218020FEF72AFA1CBD000000000240E6
:10C4600010B504464FF47A7104FB01F000F001F8B6
:10C4700010BD10B50022C0EB0013DB000724B3FB96
:10C48000F4F100BF531C1A468B4200D910BDF9E7E6
:10C490003EB5044600250020029001900090207ACD
:10C4A00001283DD1E068806B0190019820F4803034
:10C4B0000190607A28B1019820F4801000F5801076
:10C4C00001900198E168886300200290E068C068EC
:10C4D0000290029820F040000290029820F4800020
:10C4E0000290029820F400300290029820F400207C
:10C4F00002900298E168C860204600F063F9E07895
:10C50000012843D1009820F01E000A3000900098C6
:10C5100020F02000203000900098E168886035E02D
:10C52000E068C0680290029820F04000403002901D
:10C530000298E168C860204600F044F900200190AC
:10C54000019820F4803000F580300190019820F4AB
:10C55000802000F580200190019820F4002000F553
:10C5600000200190019820F4001000F500100190C7
:10C57000607A28B1019820F4801000F580100190B5
:10C580000198E16888631420FFF76AFFE0780128CA
:10C590000FD1E06880680090009820F01E000A30FB
:10C5A0000090009820F02000203000900098E16872
:10C5B000886028463EBD70B588B00446002600203D
:10C5C000079006900590049003900021D4F80C0188
:10C5D0000160206900680690069820F4C05006901B
:10C5E000069920690160E07A01283FD103212046A5
:10C5F00000F006FD8020E1684862059880B200F5F1
:10C600000010059005986FF30F0080300590059895
:10C61000E1688862059800EB1041049861F30F000F
:10C620000490049880B200F5000004900498E1683A
:10C63000C1F80401049800EB104161F30F0004906D
:10C64000049880B200F5001004900499E068C0F8E6
:10C650000811049800EB104161F30F000490049856
:10C6600080B204900499E068C0F80C1110212046B3
:10C6700000F07AFC204600F051FC002120690161A5
:10C6800020694161491E2069816100212069C161E1
:10C6900000252CE004F1180050F8250000680790F0
:10C6A0000798C00F70B100200790079820F08040D5
:10C6B00000F180400790079820F0006000F10060D2
:10C6C000079001E00020079004F1180050F82500C1
:10C6D00007990160002104F1180050F8250001615C
:10C6E000FF2104F1180050F8250081606D1C60786E
:10C6F000A842CFD800252CE004F1540050F82500C2
:10C70000006801900198C00F70B10020019001985D
:10C7100020F0804000F180400190019820F00060FE
:10C7200000F10060019001E00020019004F154004C
:10C7300050F8250001990160002104F1540050F8DF
:10C7400025000161FF2104F1540050F825008160AB
:10C750006D1C6078A842CFD800200390039820F485
:10C76000807000F580700390206900690399884308
:10C77000084321690861E07801281DD1002002905A
:10C78000029820F00100401C0290029820F0020064
:10C79000801C02904021029861F38A000290029866
:10C7A00020F4803000F580300290029861F3594007
:10C7B0000290029920690163204600F050FB304648
:10C7C00008B070BDF8B50446002600250020009092
:10C7D00000BF0320FFF74DFEE06800690090681C71
:10C7E00005461349884201D90020F8BD0098C00FC2
:10C7F0000028EED00025009820F00100401C009099
:10C800000098E168086100BFE06800690090681C5A
:10C8100005460749884200D904E0009800F001006D
:10C820000028F1D100BF0320FFF723FE3046DCE7EC
:10C83000400D030008B50146002000220092009A36
:10C8400022F00102521C0092CA689268009B9A432F
:10C85000CB689A6008BD0EB5014600200022009208
:10C860000A69926802928A6912680192029AC2F376
:10C87000410232B1012A05D0022A09D0032A0DD182
:10C8800001E000BF00BF019A6FF30A0201920AE0C3
:10C89000019A6FF30A02D21C019204E0019A6FF32D
:10C8A0000A02019200BF00BF019B8A691360009ACF
:10C8B00022F4807202F5807200920A695268009B2D
:10C8C0009A431A430B695A600EBDFCB5024600201C
:10C8D00000240025019500954D78012D52D19369D2
:10C8E0001D6801951D6900954D6955B9009D25F09C
:10C8F0007F050095009D25F4002505F50025009590
:10C9000016E08E684D69B54207D98D684D610E7A83
:10C91000009D66F30605009504E00E7D009D66F31C
:10C9200006050095009D25F4002505F500250095D8
:10C93000009D1D61D578012D06D10F7802F11805F3
:10C9400055F827500E696E61019D25F0806505F14F
:10C9500080650195019D25F0004505F10045019593
:10C96000019D1D60D578002D59D14D69002D56D0FF
:10C970000E780125B5402C4315696D6B254316696A
:10C9800075634CE00E7802F1540555F826502D6879
:10C9900001950E7802F1540555F826502D69009541
:10C9A0004D695DB90E7A009D66F306050095009D00
:10C9B00025F4002505F5002500950CE08D684D61F6
:10C9C0000E7A009D66F306050095009D25F400256E
:10C9D00005F5002500950F7802F1540555F827500C
:10C9E000009E2E61D578012D06D10F7802F15405F5
:10C9F00055F827500E696E61019D25F0806505F19F
:10CA000080650195019D25F0004505F100450195E2
:10CA10000F7802F1540555F82750019E2E60FCBD99
:10CA20000CB500210191019921F0C04101F1C041F3
:10CA30000191019921F4002101F500210191019951
:10CA400021F07F0118310191019A416D0A61C1788D
:10CA5000012915D10021009100F2CC51426D5161A4
:10CA6000416D09680091009921F0004101F10041F8
:10CA700000914FF080210091009A416D0A6000BF43
:10CA80000CBD3CB5024600200024019400944C7873
:10CA9000012C0CD10D7802F1180454F825300D78D2
:10CAA0000124AC40009D64F30F0500950BE00D7868
:10CAB00002F1540454F825300D780124AC40009D57
:10CAC00064F31F4500951C680194019CC4F3C034B5
:10CAD000E4B90D89019C65F30A040194CD78019CA9
:10CAE00065F3934401948D79019C65F39954019405
:10CAF000019C24F0805404F180540194019C24F49E
:10CB0000004404F500440194019C1C601469E4692C
:10CB1000009D2C431569EC613CBD38B503460020EF
:10CB2000002400944C78012C05D10D7803F11804F1
:10CB300054F8252004E00D7803F1540454F825201E
:10CB400014680094009C24F400140094CC78032C06
:10CB500002D0CC78022C05D1009C24F0805404F142
:10CB600080540094009C146038BD3CB502460020FF
:10CB70000024019400944C78012C0CD10D7802F122
:10CB8000180454F825300D780124AC40009D64F35E
:10CB90000F0500950BE00D7802F1540454F8253090
:10CBA0000D780124AC40009D64F31F450095019C65
:10CBB00024F400440194019C1C601469E469009D04
:10CBC000AC431569EC613CBD38B503460A4600200C
:10CBD000002400945478012C18D1157803F118041E
:10CBE00054F825100C680094009CE40F2CB1009CB4
:10CBF00024F0804404F180440094009C24F4001448
:10CC000004F500140094009C0C600EE0157803F10C
:10CC1000540454F825100C680094009C24F400146B
:10CC200004F500140094009C0C6038BDFEB5054668
:10CC30000C46002600270020029001906078012811
:10CC40007ED1217805F1180050F82100006802908B
:10CC5000217805F1180050F8210000690190606901
:10CC600048B901986FF3120001900121019861F316
:10CC7000DC40019017E06169019861F312000190B6
:10CC80006069401EA1680844B0FBF1F1019861F3AE
:10CC9000DC400190E078012805D1019820F0C040E7
:10CCA00000F100500190227805F1180050F82200A0
:10CCB00001990161E878012807D1227805F118006F
:10CCC00050F82200216941610DE0E07801280AD086
:10CCD000606940B12178012000FA01F72869406BB2
:10CCE000384329694863E078012813D128698068AE
:10CCF00000900098C0F3002030B9029820F0005056
:10CD000000F10050029005E0029820F0805000F100
:10CD100080500290029820F0806000F180600290C4
:10CD2000029820F0004000F100400290227805F1C6
:10CD3000180050F8220002990160E078012800E014
:10CD400008E070D1A08A83B222782846E16800F01A
:10CD500034FA68E0217805F1540050F821000068A9
:10CD60000290217805F1540050F8210000690190EB
:10CD7000606950B9A168019861F312000190012126
:10CD8000019861F3DC40019017E0A068401E6169E2
:10CD90000844A168B0FBF1F1019861F3DC40019017
:10CDA0000198C0F3C940A1684843019960F312019A
:10CDB00001910198C0F312006061227805F15400DE
:10CDC00050F8220001990161E878012806D1227803
:10CDD00005F1540050F8220021694161E0780128F2
:10CDE0000ED1607930B1029820F0005000F100506F
:10CDF000029005E0029820F0805000F180500290EF
:10CE0000029820F0806000F180600290029820F08B
:10CE1000004000F100400290227805F1540050F8E3
:10CE20002200029901603046FEBD08B50021009144
:10CE3000491EC26851606FF08041C268516100991B
:10CE400021F0004101F100410091009921F40061BD
:10CE500001F5006100910099C268916108BD38B583
:10CE60000446002500200090E16888616FF0804052
:10CE7000E16848612046FFF7D8FFE07820B90098C4
:10CE800020F0100010300090009820F4006000F5B1
:10CE900000600090009820F4805000F580500090D1
:10CEA000009820F4005000F500500090009820F405
:10CEB000802000F580200090009820F4002000F5EC
:10CEC00000200090009820F00800083000900098A2
:10CED00020F4801000F580100090009820F40010DD
:10CEE00000F500100090E0688069009988430843CD
:10CEF000E1688861284638BD08B501460020002257
:10CF00000092009A22F00102521C0092CA689268B4
:10CF1000009B1A43CB689A6008BD0000F8B5044630
:10CF20000025002600200090009820F0100010300E
:10CF300000900098E168086100BFE0680069009017
:10CF4000701C06460749884200D904E00098C0F3E7
:10CF500000100028F1D100BF0320FFF78AFA28460D
:10CF6000F8BD0000400D0300F8B504460D4600264C
:10CF7000002700200090009820F020002030009032
:10CF8000009865F38A1000900098E168086100BF7E
:10CF9000E06800690090781C07460749884200D97C
:10CFA00004E00098C0F340100028F1D100BF032036
:10CFB000FFF75FFA3046F8BD400D030008B50146A3
:10CFC00000200A6992680092009AC2F3410232B1CD
:10CFD000012A06D0022A07D0032A07D102E0032043
:10CFE00006E000BF022003E0012001E0022000BFB4
:10CFF00000BF08BD0146C868406900F001007047E5
:10D0000008B5026912680092009A61F30102009269
:10D01000009B0269136008BD00B502461046FFF789
:10D02000E9FF012801D0012000BD0020FCE70146F6
:10D030000020CA685069CA6892691040704701466A
:10D04000086982690869C069024090B27047014668
:10D05000086982690869C0690240100C704702467D
:10D0600002F1540353F82130986813695B69184042
:10D070007047F0B503460024D01CC71700EB977724
:10D08000BD10D3F8D06000BF03E030680860091D10
:10D09000641CAC42F9D30846F0BD000070B50246EE
:10D0A0000C46002300200025D570012595704025F1
:10D0B0009580012C0CD14FF0A0430125D572082595
:10D0C0001570042555709D15D580022515720AE04E
:10D0D0004CB9254B0025D5720C25157006255570C9
:10D0E0004FF4A065D580D36003F50065156100217C
:10D0F00010E003F5106505EB411602F1180545F83F
:10D10000216003F5306505EB411602F1540545F841
:10D110002160491C55788D42EBD803F58065556137
:10D120004035C2F8CC50002108E003F5A06505EBBE
:10D13000411602F1900545F82160491C15788D4291
:10D14000F3D8002108E003F5805505EB013602F124
:10D15000D00545F82160491C15788D42F3D803F5B8
:10D160006065C2F80C5170BD00000440F8B504467B
:10D170000D460026E068C0680090009820F000503E
:10D180000090009820F080400090012D06D100987A
:10D1900020F0005000F10050009006E02DB90098FA
:10D1A00020F0804000F1804000900098E168C86065
:10D1B0003220FFF755F93046F8BD2DE9F04104461D
:10D1C0000026E078B0B900270020DD1C4FEAE578A2
:10D1D00005EB98784FEAA80704F1D00555F822C06E
:10D1E00000BF04E00D68CCF80050091D401CB84297
:10D1F000F8D300BF3046BDE8F081000000210846AA
:10D2000007F050FF0021012007F04CFF0021022011
:10D2100007F048FF0021032007F044FF07F0B4FBAC
:10D220000121022007F00EFC0121042007F00AFC76
:10D23000D62102A00CF06EFC00BFFEE72E2E5C484B
:10D24000415244574152455C7372635C6E76696328
:10D250002E63000010B50346042B15D007DC7BB10C
:10D26000012B0ED0022B0DD0032B3CD10BE0202B39
:10D270000BD0212B1CD0222B33D0232B33D131E0E8
:10D2800032E031E030E02FE02EE008784C7840EAE0
:10D2900004208C7840EA0440CC7840EA0460144CC6
:10D2A000206008792071487960718879A0711BE04D
:10D2B0000F48007808700E480088000A48700C4833
:10D2C0000068000C88700A480068000EC8700848A2
:10D2D000007908710648407948710548807988715D
:10D2E00002E001E000E000BF00BF002010BD000030
:10D2F000E80400207CB505460E460020019000247D
:10D3000009E0285D0090002301AA694604480068EE
:10D310000FF0DAFE641CB442F3D300207CBD0000A1
:10D32000E4040020014610488079072806D101F066
:10D330007F000E4A0E4B1B68D05407E00A488079E4
:10D34000082803D109480A4A12688154084800682D
:10D35000401C074A106010460068B0F5007F01D1FC
:10D360000020106000207047E8040020CB840020DB
:10D370005804002000207047002070470FB4054B70
:10D3800010B503A9044A029802F020F810BC5DF819
:10D3900014FB0000B93401081000002003B4019808
:10D3A0004100009850EAC12018BF04204A0D18BF60
:10D3B00040F0010040F2FF72B2EB515F08BF40F055
:10D3C0000200012808BF052002B070474100080292
:10D3D00018BF04200A0E18BF40F001004FF07F4232
:10D3E00032EA010108BF40F00200012808BF052011
:10D3F0007047000010B54FF00E402DED028BB0EEDF
:10D40000408A18EE104A00EB4400B0F1506F4AD841
:10D410004FF0FC40B0EB440F22D2B0EEC80AF7EE5A
:10D42000000A30EEC00AF6EE000A60EE208A18EE1E
:10D43000900A0CF0D4F801EE100A14F0004F1DBF52
:10D44000DFED2D0A9FED2D0AB1EE411ADFED2C0A1A
:10D4500008BF9FED2C0AF8EE001A21EE218A05E0A4
:10D46000DFED290A68EE088AB0EE600A9FED271A00
:10D47000DFED271A30EE080A48EE811A9FED251AD3
:10D4800008EEA11ADFED241A48EE811A9FED231A47
:10D4900008EEA11A68EE281ABDEC028B01EE810A93
:10D4A00030EE200A10BD4FF0E440B0EB440F0CD931
:10D4B00018EE100AFFF78AFF042808BF01F0FCFDF0
:10D4C000B0EE480ABDEC028B10BD4FF07F40B0EBD0
:10D4D000440F07D2B0EE480ABDEC028BBDE8104005
:10D4E00001F0D4BD012001F0A9FEBDEC028BBDE826
:10D4F000104001F0D1BD00000000C9BF22AAFDB953
:10D500000000C93F22AAFD390000000024FE1C3D96
:10D51000C78AD83C1E67383D1B93993DAFAA2A3E67
:10D5200010EE100A10B510EE901A4FF0684202EBA0
:10D5300040032DED028BB3F1654F3CBF02EB41027E
:10D54000B2F1654F7CD200BFC0F3C753C1F3C752DD
:10D550009A1A1B2A09DD10F0004F14BF9FED6E0AC6
:10D560009FED6E0ABDEC028B10BD12F11A0F1BDA93
:10D5700011F0004F09D010F0004F0CBF9FED680A6A
:10D580009FED680ABDEC028B10BD80EE208A18EE7C
:10D59000100AFFF71BFF042808BF01F08DFDB0EE55
:10D5A000480ABDEC028B10BD4200B2EB410F37D9E7
:10D5B00010F0004F19BFDFED5C1A9FED5C1ADFED34
:10D5C0005C1A9FED5C1AB0EE602A0A46F1EE400A42
:10D5D00080F00041B0EE420A10460A1A5200B2F141
:10D5E000807F34D2484010F0004FDFED532A9FED8A
:10D5F000533A1DBFBEEE002A71EEE21A31EE431A15
:10D60000B6EE002A04BF71EEA21A31EE031AF0EE54
:10D61000402A42EE602A40EE020A82EEA02A18E07A
:10D6200011F0004F04BF9FED461AF0EE411AD4D01E
:10D6300010F0004F1CBFDFED431A9FED431A00E0CE
:10D6400026E004BFDFED411A9FED411AC5E780EEE9
:10D65000202A22EE020ADFED3F0ADFED3F2ABDEC71
:10D66000028B40EE202ADFED3D0A40EE220ADFED7C
:10D670003C2A40EE202ADFED3B0A40EE220A22EE51
:10D68000000A00EE201A31EE020A30EE210A10BD27
:10D690004FF07F42B2EB400F28BFB2EB410F05D2F3
:10D6A000BDEC028BBDE8104001F0F3BC40EA010381
:10D6B0005B0008BF41F0FF410BD0B2EB400F08BF49
:10D6C000B2EB410F08D120F0804000EE100A21F0AB
:10D6D000804100EE901A37E7B2EB400F12BF5FEACD
:10D6E000410240F0FF4001F000413FF42DAF4A00FD
:10D6F00092EA40033FF528AF002AACBF9FED1A1A0B
:10D700009FED1A1A20EE010A60EE810A10EE100A4F
:10D7100010EE901A18E70000DB0FC9BFDB0FC93FFE
:10D72000DB0F4940DB0F49C00000C9BF22AAFDB989
:10D730000000C93F22AAFD390060ED3EC30ACE3782
:10D7400000000000000049C022AA7DBA0000494044
:10D7500022AA7D3A2DAD65BD8FB8D53D0FB511BE5E
:10D7600061C84C3EA8AAAABE0000804F0000802FCE
:10D7700010EE101A08B5444A6846B2EB410F28D99A
:10D780004FF0E640B0EB410F94BF00204FF0FF3068
:10D7900000900098002861DB60EE000A10F0010F95
:10D7A00045D010F0020FDFED391A9FED391A00EE67
:10D7B000E11ADFED381A40EE811A21EEA01AF0EEE0
:10D7C000400A40EE010A08BFF1EE600AB0EE600ABE
:10D7D00008BD314B21F0004293423CD911F0004F7B
:10D7E000DFED2E0A20EE201ADFED2D0A19BF31EEF3
:10D7F000601A71EE200A31EE201A71EE600ABDEE59
:10D80000E01A11EE100A9FED271A00F0030000EE57
:10D81000C10A9FED251A009000EEC10A9FED231A60
:10D8200000EEC10A9FED221A00EEC10AB1E79FED9A
:10D83000211A9FED210A10F0020F00EE810A9FEDE0
:10D840001F1A00EE801AB7EE000A00EE810A18BF18
:10D85000B1EE400A08BD01F037FC9AE710EE100A5D
:10D860004000B0F17F4F3CBFB7EE000A08BD07D1C2
:10D870004FF0010001F0E2FCBDE8084001F00CBCF3
:10D88000BDE8084001F002BCB61F927E336D4C39F2
:10D89000DA82083CA0AA2ABE490E494683F9223FF3
:10D8A0000000004B0000C93F00A0FD390020A2335A
:10D8B0001A61342CB93AB2BACA9F2A3DDDFFFFBEC5
:10D8C0002DED020B019820F0004001909DED000B22
:10D8D00002B07047000000002DE9F04D2DED040B63
:10D8E0002DED0E8B96B0DDE92550279CDDF890A03C
:10D8F00025F0004624F00048BAF1000F14BF0121C2
:10D90000002101EB4502FC4953184A1093422AD3E7
:10D91000002814BF0123002303EB44030B44F74901
:10D920008B4220D358EA00019FEDF59B76D0DFF8BB
:10D93000D8B35D4503D1BAF1000F05D188E0BAF143
:10D94000000F08BF002100D0012101EB450111F5B6
:10D95000001F08D8002814BF0121002101EB440159
:10D9600011F5001F0BD99DED261B9DED240B16B064
:10D97000BDEC0E8B04B0BDE8F04D01F041BB0027BB
:10D98000002DBCBFE149884521DAE1498845A8BF9F
:10D9900002271CDAC3451ADCDE4901EB28511429A1
:10D9A00008DDC1F1340220FA02F101FA02F28242EA
:10D9B0000DD108E058B9C1F1140228FA02F101FAB8
:10D9C00002F2424503D101F00101C1F1020756EA1A
:10D9D0000A0124D1002C22DA002D18BF022F01D019
:10D9E000012F0AD0022001F029FC16B0BDEC0E8BED
:10D9F00004B0BDE8F04D01F0EBBA022001F01EFCCE
:10DA000001F0E6FA51EC100B81F0004141EC100BF3
:10DA100016B0BDEC0E8B04B0BDE8F08D18E09FEDA4
:10DA2000BEAB9FEDBF8B002871D1B848804522D195
:10DA300005F1804010F5801008BFBAF1000F07D043
:10DA4000B3450ADC002CA8BF9DED260BE0DA0DE003
:10DA5000B0EE490AF0EE690ADAE7002C06DA9DED2D
:10DA6000260B51EC100B81F000416FE0AE4878447A
:10DA700090ED000BCCE7D8454DD1002C48DA2EB103
:10DA800086423AD1BAF1000F42D126E0BAF1000F36
:10DA900013D0022001F0D2FB01F0CEFA8DED020B83
:10DAA0009DED240B8DED000B10EE900A039961F3B0
:10DAB0001E0003909DED020BAAE78DED02AB9DEDDC
:10DAC000240B1AEE901A10EE900A8DED000B61F304
:10DAD0001E0003909DED020B9AE78DED028B9DEDEC
